{
  "_format": "hh3-artifact-1",
  "contractName": "FederatedLearning",
  "sourceName": "contracts/FederatedLearning.sol",
  "abi": [
    {
      "inputs": [
        {
          "internalType": "address",
          "name": "initialOwner",
          "type": "address"
        }
      ],
      "stateMutability": "nonpayable",
      "type": "constructor"
    },
    {
      "inputs": [
        {
          "internalType": "address",
          "name": "owner",
          "type": "address"
        }
      ],
      "name": "OwnableInvalidOwner",
      "type": "error"
    },
    {
      "inputs": [
        {
          "internalType": "address",
          "name": "account",
          "type": "address"
        }
      ],
      "name": "OwnableUnauthorizedAccount",
      "type": "error"
    },
    {
      "anonymous": false,
      "inputs": [
        {
          "indexed": true,
          "internalType": "uint256",
          "name": "campaignId",
          "type": "uint256"
        }
      ],
      "name": "CampaignCancelled",
      "type": "event"
    },
    {
      "anonymous": false,
      "inputs": [
        {
          "indexed": true,
          "internalType": "uint256",
          "name": "campaignId",
          "type": "uint256"
        },
        {
          "indexed": true,
          "internalType": "uint8",
          "name": "round",
          "type": "uint8"
        },
        {
          "indexed": false,
          "internalType": "string",
          "name": "finalGlobalModelCID",
          "type": "string"
        }
      ],
      "name": "CampaignCompleted",
      "type": "event"
    },
    {
      "anonymous": false,
      "inputs": [
        {
          "indexed": true,
          "internalType": "uint256",
          "name": "campaignId",
          "type": "uint256"
        },
        {
          "indexed": false,
          "internalType": "uint8",
          "name": "totalRounds",
          "type": "uint8"
        },
        {
          "indexed": false,
          "internalType": "string",
          "name": "initialModelCID",
          "type": "string"
        }
      ],
      "name": "CampaignCreated",
      "type": "event"
    },
    {
      "anonymous": false,
      "inputs": [
        {
          "indexed": true,
          "internalType": "uint256",
          "name": "campaignId",
          "type": "uint256"
        },
        {
          "indexed": false,
          "internalType": "enum FederatedLearning.CampaignState",
          "name": "newState",
          "type": "uint8"
        }
      ],
      "name": "CampaignStateChanged",
      "type": "event"
    },
    {
      "anonymous": false,
      "inputs": [
        {
          "indexed": true,
          "internalType": "uint256",
          "name": "campaignId",
          "type": "uint256"
        },
        {
          "indexed": true,
          "internalType": "uint8",
          "name": "round",
          "type": "uint8"
        },
        {
          "indexed": false,
          "internalType": "enum FederatedLearning.CampaignState",
          "name": "state",
          "type": "uint8"
        },
        {
          "indexed": false,
          "internalType": "string",
          "name": "finalGlobalModelCID",
          "type": "string"
        }
      ],
      "name": "GlobalModelChanged",
      "type": "event"
    },
    {
      "anonymous": false,
      "inputs": [
        {
          "indexed": true,
          "internalType": "uint256",
          "name": "campaignId",
          "type": "uint256"
        },
        {
          "indexed": true,
          "internalType": "uint8",
          "name": "round",
          "type": "uint8"
        },
        {
          "indexed": true,
          "internalType": "address",
          "name": "trainer",
          "type": "address"
        },
        {
          "indexed": false,
          "internalType": "string",
          "name": "modelCID",
          "type": "string"
        }
      ],
      "name": "ModelSubmitted",
      "type": "event"
    },
    {
      "anonymous": false,
      "inputs": [
        {
          "indexed": true,
          "internalType": "uint256",
          "name": "campaignId",
          "type": "uint256"
        },
        {
          "indexed": true,
          "internalType": "uint8",
          "name": "round",
          "type": "uint8"
        },
        {
          "indexed": true,
          "internalType": "address",
          "name": "validator",
          "type": "address"
        },
        {
          "indexed": false,
          "internalType": "string",
          "name": "modelCID",
          "type": "string"
        },
        {
          "indexed": false,
          "internalType": "bool",
          "name": "isValid",
          "type": "bool"
        }
      ],
      "name": "ModelValidated",
      "type": "event"
    },
    {
      "anonymous": false,
      "inputs": [
        {
          "indexed": true,
          "internalType": "uint256",
          "name": "campaignId",
          "type": "uint256"
        },
        {
          "indexed": true,
          "internalType": "uint8",
          "name": "round",
          "type": "uint8"
        },
        {
          "indexed": false,
          "internalType": "string",
          "name": "initialModelCID",
          "type": "string"
        }
      ],
      "name": "NewRoundStarted",
      "type": "event"
    },
    {
      "anonymous": false,
      "inputs": [
        {
          "indexed": true,
          "internalType": "address",
          "name": "previousOwner",
          "type": "address"
        },
        {
          "indexed": true,
          "internalType": "address",
          "name": "newOwner",
          "type": "address"
        }
      ],
      "name": "OwnershipTransferred",
      "type": "event"
    },
    {
      "anonymous": false,
      "inputs": [
        {
          "indexed": true,
          "internalType": "uint256",
          "name": "campaignId",
          "type": "uint256"
        },
        {
          "indexed": true,
          "internalType": "uint8",
          "name": "round",
          "type": "uint8"
        },
        {
          "indexed": false,
          "internalType": "string",
          "name": "newGlobalModelCID",
          "type": "string"
        }
      ],
      "name": "RoundFinalized",
      "type": "event"
    },
    {
      "inputs": [],
      "name": "REQUIRED_VALIDATIONS",
      "outputs": [
        {
          "internalType": "uint256",
          "name": "",
          "type": "uint256"
        }
      ],
      "stateMutability": "view",
      "type": "function"
    },
    {
      "inputs": [],
      "name": "activeCampaignId",
      "outputs": [
        {
          "internalType": "uint256",
          "name": "",
          "type": "uint256"
        }
      ],
      "stateMutability": "view",
      "type": "function"
    },
    {
      "inputs": [],
      "name": "attemptAggregation",
      "outputs": [],
      "stateMutability": "nonpayable",
      "type": "function"
    },
    {
      "inputs": [],
      "name": "campaignCounter",
      "outputs": [
        {
          "internalType": "uint256",
          "name": "",
          "type": "uint256"
        }
      ],
      "stateMutability": "view",
      "type": "function"
    },
    {
      "inputs": [
        {
          "internalType": "uint256",
          "name": "",
          "type": "uint256"
        }
      ],
      "name": "campaigns",
      "outputs": [
        {
          "internalType": "uint256",
          "name": "id",
          "type": "uint256"
        },
        {
          "internalType": "enum FederatedLearning.CampaignState",
          "name": "state",
          "type": "uint8"
        },
        {
          "internalType": "string",
          "name": "globalModelCID",
          "type": "string"
        },
        {
          "internalType": "uint8",
          "name": "currentRound",
          "type": "uint8"
        },
        {
          "internalType": "uint8",
          "name": "totalRounds",
          "type": "uint8"
        },
        {
          "internalType": "uint256",
          "name": "submissionDeadline",
          "type": "uint256"
        },
        {
          "internalType": "uint8",
          "name": "minSubmissions",
          "type": "uint8"
        },
        {
          "internalType": "uint8",
          "name": "submissionCounter",
          "type": "uint8"
        }
      ],
      "stateMutability": "view",
      "type": "function"
    },
    {
      "inputs": [],
      "name": "cancelCampaign",
      "outputs": [],
      "stateMutability": "nonpayable",
      "type": "function"
    },
    {
      "inputs": [
        {
          "internalType": "address[]",
          "name": "_participants",
          "type": "address[]"
        },
        {
          "internalType": "uint8",
          "name": "_totalRounds",
          "type": "uint8"
        },
        {
          "internalType": "string",
          "name": "_initialModelCID",
          "type": "string"
        },
        {
          "internalType": "uint256",
          "name": "_submissionPeriod",
          "type": "uint256"
        },
        {
          "internalType": "uint8",
          "name": "_minSubmissions",
          "type": "uint8"
        }
      ],
      "name": "createTrainingCampaign",
      "outputs": [],
      "stateMutability": "nonpayable",
      "type": "function"
    },
    {
      "inputs": [
        {
          "internalType": "string",
          "name": "_newGlobalModelCID",
          "type": "string"
        }
      ],
      "name": "finalizeRound",
      "outputs": [],
      "stateMutability": "nonpayable",
      "type": "function"
    },
    {
      "inputs": [],
      "name": "getValidModelsForCurrentRound",
      "outputs": [
        {
          "internalType": "string[]",
          "name": "",
          "type": "string[]"
        }
      ],
      "stateMutability": "view",
      "type": "function"
    },
    {
      "inputs": [],
      "name": "owner",
      "outputs": [
        {
          "internalType": "address",
          "name": "",
          "type": "address"
        }
      ],
      "stateMutability": "view",
      "type": "function"
    },
    {
      "inputs": [],
      "name": "renounceOwnership",
      "outputs": [],
      "stateMutability": "nonpayable",
      "type": "function"
    },
    {
      "inputs": [
        {
          "internalType": "string",
          "name": "_modelCID",
          "type": "string"
        }
      ],
      "name": "submitModel",
      "outputs": [],
      "stateMutability": "nonpayable",
      "type": "function"
    },
    {
      "inputs": [
        {
          "internalType": "address",
          "name": "newOwner",
          "type": "address"
        }
      ],
      "name": "transferOwnership",
      "outputs": [],
      "stateMutability": "nonpayable",
      "type": "function"
    }
  ],
  "bytecode": "0x608060405234801561001057600080fd5b506040516118b83803806118b883398101604081905261002f916100be565b806001600160a01b03811661005e57604051631e4fbdf760e01b81526000600482015260240160405180910390fd5b6100678161006e565b50506100ee565b600080546001600160a01b038381166001600160a01b0319831681178455604051919092169283917f8be0079c531659141344cd1fd0a4f28419497f9722a3daafe3b4186f6b6457e09190a35050565b6000602082840312156100d057600080fd5b81516001600160a01b03811681146100e757600080fd5b9392505050565b6117bb806100fd6000396000f3fe608060405234801561001057600080fd5b50600436106100cf5760003560e01c80638da5cb5b1161008c578063ccdb52cf11610066578063ccdb52cf1461018b578063ea3b565f14610193578063f2fde38b146101a6578063fca604d7146101b957600080fd5b80638da5cb5b1461015557806397b7c71614610170578063980e78441461018357600080fd5b80630143381d146100d4578063141961bc146100f25780634b4eee5a146101195780636ee2356414610130578063715018a61461013a578063730f919d14610142575b600080fd5b6100dc6101c2565b6040516100e991906111dd565b60405180910390f35b610105610100366004611242565b610488565b6040516100e9989796959493929190611293565b61012260025481565b6040519081526020016100e9565b61013861055f565b005b610138610685565b6101386101503660046113ab565b610699565b6000546040516001600160a01b0390911681526020016100e9565b61013861017e366004611415565b61099d565b610138610d34565b610122600081565b6101386101a13660046113ab565b610e18565b6101386101b4366004611522565b6110dc565b61012260015481565b60606000600254116102135760405162461bcd60e51b81526020600482015260156024820152744e6f2063616d706169676e2069732061637469766560581b60448201526064015b60405180910390fd5b6002546000908152600360208190526040822090810154909160ff90911690805b600254600090815260056020908152604080832060ff871684529091529020548110156102b957600254600090815260056020908152604080832060ff87168452909152812080548390811061028c5761028c611544565b906000526020600020906003020160020154106102b157816102ad81611570565b9250505b600101610234565b5060008167ffffffffffffffff8111156102d5576102d56112f4565b60405190808252806020026020018201604052801561030857816020015b60608152602001906001900390816102f35790505b5090506000805b600254600090815260056020908152604080832060ff8916845290915290205481101561047d57600254600090815260056020908152604080832060ff89168452909152812080548390811061036757610367611544565b9060005260206000209060030201600201541061047557600254600090815260056020908152604080832060ff8916845290915290208054829081106103af576103af611544565b906000526020600020906003020160000180546103cb90611589565b80601f01602080910402602001604051908101604052809291908181526020018280546103f790611589565b80156104445780601f1061041957610100808354040283529160200191610444565b820191906000526020600020905b81548152906001019060200180831161042757829003601f168201915b505050505083838151811061045b5761045b611544565b6020026020010181905250818061047190611570565b9250505b60010161030f565b509095945050505050565b600360205260009081526040902080546001820154600283018054929360ff909216926104b490611589565b80601f01602080910402602001604051908101604052809291908181526020018280546104e090611589565b801561052d5780601f106105025761010080835404028352916020019161052d565b820191906000526020600020905b81548152906001019060200180831161051057829003601f168201915b5050505060038301546005840154600690940154929360ff808316946101009384900482169450919281831692041688565b600254600090815260036020526040902060018082015460ff16600381111561058a5761058a61125b565b146105d15760405162461bcd60e51b81526020600482015260176024820152764e6f7420696e207375626d697373696f6e20706861736560481b604482015260640161020a565b6005810154600682015442919091119060ff80821661010090920416101581806105f85750805b6106445760405162461bcd60e51b815260206004820152601e60248201527f4167677265676174696f6e20636f6e646974696f6e73206e6f74206d65740000604482015260640161020a565b60018301805460ff1916600390811790915560025460405190916000805160206117668339815191529161067891906115c3565b60405180910390a2505050565b61068d61111a565b6106976000611147565b565b60025460009081526003602081905260409091209081015460ff1660018083015460ff1660038111156106ce576106ce61125b565b146107155760405162461bcd60e51b81526020600482015260176024820152764e6f7420696e207375626d697373696f6e20706861736560481b604482015260640161020a565b81600501544211156107695760405162461bcd60e51b815260206004820152601b60248201527f5375626d697373696f6e20706572696f642068617320656e6465640000000000604482015260640161020a565b33600090815260048301602052604090205460ff166107de5760405162461bcd60e51b815260206004820152602b60248201527f4e6f7420616e20617574686f72697a656420747261696e657220666f7220746860448201526a34b99031b0b6b830b4b3b760a91b606482015260840161020a565b600254600090815260046020908152604080832060ff8516845282528083203384529091529020805461081090611589565b15905061085f5760405162461bcd60e51b815260206004820181905260248201527f416c7265616479207375626d697474656420666f72207468697320726f756e64604482015260640161020a565b600254600090815260046020908152604080832060ff85168452825280832033845290915290206108908482611625565b50600254600090815260056020908152604080832060ff8516845282528083208151606081018352878152338185015291820184905280546001810182559084529190922082516003909202019081906108ea9082611625565b506020820151600182810180546001600160a01b0319166001600160a01b0390931692909217909155604090920151600290910155600683018054610100900460ff1691610937836116e4565b91906101000a81548160ff021916908360ff16021790555050336001600160a01b03168160ff166002547f08b17927e8ee4e2f6476e64f65d644fa5cdbced6e4d5c993171f6ce8ae6317cb866040516109909190611703565b60405180910390a4505050565b6109a561111a565b600254600090815260036020819052604082206001015460ff16908111156109cf576109cf61125b565b14610a1c5760405162461bcd60e51b815260206004820152601e60248201527f416e206578697374696e672063616d706169676e206973206163746976650000604482015260640161020a565b6000855111610a7b5760405162461bcd60e51b815260206004820152602560248201527f4d7573742070726f76696465206174206c65617374206f6e65207061727469636044820152641a5c185b9d60da1b606482015260840161020a565b60008160ff16118015610a92575084518160ff1611155b610ade5760405162461bcd60e51b815260206004820152601760248201527f496e76616c6964206d696e207375626d697373696f6e73000000000000000000604482015260640161020a565b60008211610b395760405162461bcd60e51b815260206004820152602260248201527f5375626d697373696f6e20706572696f64206d75737420626520706f73697469604482015261766560f01b606482015260840161020a565b60018054906000610b4983611570565b909155505060018054600281815560008281526003602081905260409091209283558201805461ffff191661010060ff8a160260ff199081169190911785179091558284018054909116909317909255908101610ba68582611625565b5060068101805460ff191660ff8416179055610bc28342611716565b600582015560068101805461ff001916905560005b8651811015610c34576001826004016000898481518110610bfa57610bfa611544565b6020908102919091018101516001600160a01b03168252810191909152604001600020805460ff1916911515919091179055600101610bd7565b506002547fa31a56872f821ec03b1752efec5eb70ea7b75d1ee210c6fc4ace5e0232c4df738686604051610c69929190611729565b60405180910390a26003810154815460405160ff909216917f4119e2d239fd538e20edd294dea9455fc348a97bdc7fa5963de120e144543d9190610cae908890611703565b60405180910390a36002546000805160206117668339815191526001604051610cd791906115c3565b60405180910390a260038101548154600183015460405160ff938416937f38ecf5f0f3332b767a865e7b4ea255c4cfd43ea24621111d47f9392862fec3f492610d24929116908990611745565b60405180910390a3505050505050565b610d3c61111a565b600254600090815260036020526040812090600182015460ff166003811115610d6757610d6761125b565b03610db45760405162461bcd60e51b815260206004820152601c60248201527f4e6f206163746976652063616d706169676e20746f2063616e63656c00000000604482015260640161020a565b60018101805460ff191690556002546040517f403b6718db13878ac16c27decb08f09d3a10f116c7c25af575ff5bfbc11ae9e690600090a26002546000805160206117668339815191526000604051610e0d91906115c3565b60405180910390a250565b610e2061111a565b600254600090815260036020819052604090912080820154909160ff90911690600183015460ff166003811115610e5957610e5961125b565b14610ea65760405162461bcd60e51b815260206004820152601860248201527f4e6f7420696e206167677265676174696f6e2070686173650000000000000000604482015260640161020a565b6000835111610f035760405162461bcd60e51b8152602060048201526024808201527f4e657720676c6f62616c206d6f64656c204349442063616e6e6f7420626520656044820152636d70747960e01b606482015260840161020a565b60028201610f118482611625565b5060068201805461ff00191690558154600183015460405160ff84811693927f38ecf5f0f3332b767a865e7b4ea255c4cfd43ea24621111d47f9392862fec3f492610f6192909116908890611745565b60405180910390a38060ff166002547f97dbd91ec602ee1ff501bec1c3dd5c29c19ed4602577d56a11fd9fe43300475585604051610f9f9190611703565b60405180910390a3600382015460ff6101009091048116908216036110315760018201805460ff19169055600382015460025460405160ff909216917f78ba588b7b3158d5b56a5bbd92ccc4567564978a2070598330c4b160a79e1ef990611008908790611703565b60405180910390a3600254600080516020611766833981519152600060405161067891906115c3565b60038201805460ff16906000611046836116e4565b82546101009290920a60ff8181021990931691831602179091556001848101805460ff1916909117905560038401546002546040519190921692507f4119e2d239fd538e20edd294dea9455fc348a97bdc7fa5963de120e144543d91906110ae908790611703565b60405180910390a3600254600080516020611766833981519152600160405161067891906115c3565b505050565b6110e461111a565b6001600160a01b03811661110e57604051631e4fbdf760e01b81526000600482015260240161020a565b61111781611147565b50565b6000546001600160a01b031633146106975760405163118cdaa760e01b815233600482015260240161020a565b600080546001600160a01b038381166001600160a01b0319831681178455604051919092169283917f8be0079c531659141344cd1fd0a4f28419497f9722a3daafe3b4186f6b6457e09190a35050565b6000815180845260005b818110156111bd576020818501810151868301820152016111a1565b506000602082860101526020601f19601f83011685010191505092915050565b6000602082016020835280845180835260408501915060408160051b86010192506020860160005b8281101561123657603f19878603018452611221858351611197565b94506020938401939190910190600101611205565b50929695505050505050565b60006020828403121561125457600080fd5b5035919050565b634e487b7160e01b600052602160045260246000fd5b6004811061128f57634e487b7160e01b600052602160045260246000fd5b9052565b8881526112a36020820189611271565b610100604082015260006112bb610100830189611197565b905060ff8716606083015260ff861660808301528460a083015260ff841660c083015260ff831660e08301529998505050505050505050565b634e487b7160e01b600052604160045260246000fd5b604051601f8201601f1916810167ffffffffffffffff81118282101715611333576113336112f4565b604052919050565b600082601f83011261134c57600080fd5b813567ffffffffffffffff811115611366576113666112f4565b611379601f8201601f191660200161130a565b81815284602083860101111561138e57600080fd5b816020850160208301376000918101602001919091529392505050565b6000602082840312156113bd57600080fd5b813567ffffffffffffffff8111156113d457600080fd5b6113e08482850161133b565b949350505050565b80356001600160a01b03811681146113ff57600080fd5b919050565b803560ff811681146113ff57600080fd5b600080600080600060a0868803121561142d57600080fd5b853567ffffffffffffffff81111561144457600080fd5b8601601f8101881361145557600080fd5b803567ffffffffffffffff81111561146f5761146f6112f4565b8060051b61147f6020820161130a565b9182526020818401810192908101908b84111561149b57600080fd5b6020850194505b838510156114c4576114b3856113e8565b8252602094850194909101906114a2565b80995050505050506114d860208701611404565b9350604086013567ffffffffffffffff8111156114f457600080fd5b6115008882890161133b565b9350506060860135915061151660808701611404565b90509295509295909350565b60006020828403121561153457600080fd5b61153d826113e8565b9392505050565b634e487b7160e01b600052603260045260246000fd5b634e487b7160e01b600052601160045260246000fd5b6000600182016115825761158261155a565b5060010190565b600181811c9082168061159d57607f821691505b6020821081036115bd57634e487b7160e01b600052602260045260246000fd5b50919050565b602081016115d18284611271565b92915050565b601f8211156110d757806000526020600020601f840160051c810160208510156115fe5750805b601f840160051c820191505b8181101561161e576000815560010161160a565b5050505050565b815167ffffffffffffffff81111561163f5761163f6112f4565b6116538161164d8454611589565b846115d7565b6020601f821160018114611687576000831561166f5750848201515b600019600385901b1c1916600184901b17845561161e565b600084815260208120601f198516915b828110156116b75787850151825560209485019460019092019101611697565b50848210156116d55786840151600019600387901b60f8161c191681555b50505050600190811b01905550565b600060ff821660ff81036116fa576116fa61155a565b60010192915050565b60208152600061153d6020830184611197565b808201808211156115d1576115d161155a565b60ff831681526040602082015260006113e06040830184611197565b61174f8184611271565b6040602082015260006113e0604083018461119756fe7c387a42b7678e1b26d65927d4a0176444d9c6509a72583dee248753b768db41a2646970667358221220214d4e35d36e4e38b2d36c497bbc0e15e03aaa8f4bc825636c3ab69b9b51cc0964736f6c634300081c0033",
  "linkReferences": {},
  "deployedLinkReferences": {},
  "immutableReferences": {},
  "inputSourceName": "project/contracts/FederatedLearning.sol",
  "buildInfoId": "solc-0_8_28-2076b78e3ec9dfdc8f1227c6a26cc364d1fb7007"
}