{
  "_format": "hh3-artifact-1",
  "contractName": "FederatedLearning",
  "sourceName": "contracts/FederatedLearning.sol",
  "abi": [
    {
      "inputs": [
        {
          "internalType": "address",
          "name": "initialOwner",
          "type": "address"
        }
      ],
      "stateMutability": "nonpayable",
      "type": "constructor"
    },
    {
      "inputs": [
        {
          "internalType": "address",
          "name": "owner",
          "type": "address"
        }
      ],
      "name": "OwnableInvalidOwner",
      "type": "error"
    },
    {
      "inputs": [
        {
          "internalType": "address",
          "name": "account",
          "type": "address"
        }
      ],
      "name": "OwnableUnauthorizedAccount",
      "type": "error"
    },
    {
      "anonymous": false,
      "inputs": [
        {
          "indexed": true,
          "internalType": "uint256",
          "name": "roundId",
          "type": "uint256"
        },
        {
          "indexed": true,
          "internalType": "address",
          "name": "trainer",
          "type": "address"
        },
        {
          "indexed": false,
          "internalType": "string",
          "name": "modelCID",
          "type": "string"
        }
      ],
      "name": "ModelSubmitted",
      "type": "event"
    },
    {
      "anonymous": false,
      "inputs": [
        {
          "indexed": true,
          "internalType": "uint256",
          "name": "roundId",
          "type": "uint256"
        },
        {
          "indexed": true,
          "internalType": "address",
          "name": "validator",
          "type": "address"
        },
        {
          "indexed": false,
          "internalType": "string",
          "name": "modelCID",
          "type": "string"
        },
        {
          "indexed": false,
          "internalType": "bool",
          "name": "isValid",
          "type": "bool"
        }
      ],
      "name": "ModelValidated",
      "type": "event"
    },
    {
      "anonymous": false,
      "inputs": [
        {
          "indexed": true,
          "internalType": "uint256",
          "name": "roundId",
          "type": "uint256"
        },
        {
          "indexed": false,
          "internalType": "string",
          "name": "initialModelCID",
          "type": "string"
        }
      ],
      "name": "NewRoundStarted",
      "type": "event"
    },
    {
      "anonymous": false,
      "inputs": [
        {
          "indexed": true,
          "internalType": "address",
          "name": "previousOwner",
          "type": "address"
        },
        {
          "indexed": true,
          "internalType": "address",
          "name": "newOwner",
          "type": "address"
        }
      ],
      "name": "OwnershipTransferred",
      "type": "event"
    },
    {
      "anonymous": false,
      "inputs": [
        {
          "indexed": true,
          "internalType": "uint256",
          "name": "roundId",
          "type": "uint256"
        },
        {
          "indexed": false,
          "internalType": "string",
          "name": "newGlobalModelCID",
          "type": "string"
        }
      ],
      "name": "RoundFinalized",
      "type": "event"
    },
    {
      "anonymous": false,
      "inputs": [
        {
          "indexed": true,
          "internalType": "uint256",
          "name": "roundId",
          "type": "uint256"
        },
        {
          "indexed": false,
          "internalType": "enum FederatedLearning.RoundState",
          "name": "newState",
          "type": "uint8"
        }
      ],
      "name": "RoundStateChanged",
      "type": "event"
    },
    {
      "inputs": [],
      "name": "REQUIRED_VALIDATIONS",
      "outputs": [
        {
          "internalType": "uint256",
          "name": "",
          "type": "uint256"
        }
      ],
      "stateMutability": "view",
      "type": "function"
    },
    {
      "inputs": [],
      "name": "advanceRoundState",
      "outputs": [],
      "stateMutability": "nonpayable",
      "type": "function"
    },
    {
      "inputs": [],
      "name": "currentRound",
      "outputs": [
        {
          "internalType": "uint256",
          "name": "",
          "type": "uint256"
        }
      ],
      "stateMutability": "view",
      "type": "function"
    },
    {
      "inputs": [],
      "name": "currentRoundState",
      "outputs": [
        {
          "internalType": "enum FederatedLearning.RoundState",
          "name": "",
          "type": "uint8"
        }
      ],
      "stateMutability": "view",
      "type": "function"
    },
    {
      "inputs": [
        {
          "internalType": "string",
          "name": "_newGlobalModelCID",
          "type": "string"
        }
      ],
      "name": "finalizeRound",
      "outputs": [],
      "stateMutability": "nonpayable",
      "type": "function"
    },
    {
      "inputs": [],
      "name": "getValidModelsForCurrentRound",
      "outputs": [
        {
          "internalType": "string[]",
          "name": "",
          "type": "string[]"
        }
      ],
      "stateMutability": "view",
      "type": "function"
    },
    {
      "inputs": [],
      "name": "globalModelCID",
      "outputs": [
        {
          "internalType": "string",
          "name": "",
          "type": "string"
        }
      ],
      "stateMutability": "view",
      "type": "function"
    },
    {
      "inputs": [],
      "name": "owner",
      "outputs": [
        {
          "internalType": "address",
          "name": "",
          "type": "address"
        }
      ],
      "stateMutability": "view",
      "type": "function"
    },
    {
      "inputs": [],
      "name": "renounceOwnership",
      "outputs": [],
      "stateMutability": "nonpayable",
      "type": "function"
    },
    {
      "inputs": [
        {
          "internalType": "string",
          "name": "_initialModelCID",
          "type": "string"
        }
      ],
      "name": "startNewRound",
      "outputs": [],
      "stateMutability": "nonpayable",
      "type": "function"
    },
    {
      "inputs": [
        {
          "internalType": "string",
          "name": "_modelCID",
          "type": "string"
        }
      ],
      "name": "submitModel",
      "outputs": [],
      "stateMutability": "nonpayable",
      "type": "function"
    },
    {
      "inputs": [
        {
          "internalType": "address",
          "name": "newOwner",
          "type": "address"
        }
      ],
      "name": "transferOwnership",
      "outputs": [],
      "stateMutability": "nonpayable",
      "type": "function"
    },
    {
      "inputs": [
        {
          "internalType": "string",
          "name": "_modelCID",
          "type": "string"
        },
        {
          "internalType": "bool",
          "name": "_isValid",
          "type": "bool"
        }
      ],
      "name": "validateModel",
      "outputs": [],
      "stateMutability": "nonpayable",
      "type": "function"
    }
  ],
  "bytecode": "0x608060405234801561000f575f5ffd5b50604051611fe8380380611fe8833981810160405281019061003191906101d7565b805f73ffffffffffffffffffffffffffffffffffffffff168173ffffffffffffffffffffffffffffffffffffffff16036100a2575f6040517f1e4fbdf70000000000000000000000000000000000000000000000000000000081526004016100999190610211565b60405180910390fd5b6100b1816100b860201b60201c565b505061022a565b5f5f5f9054906101000a900473ffffffffffffffffffffffffffffffffffffffff169050815f5f6101000a81548173ffffffffffffffffffffffffffffffffffffffff021916908373ffffffffffffffffffffffffffffffffffffffff1602179055508173ffffffffffffffffffffffffffffffffffffffff168173ffffffffffffffffffffffffffffffffffffffff167f8be0079c531659141344cd1fd0a4f28419497f9722a3daafe3b4186f6b6457e060405160405180910390a35050565b5f5ffd5b5f73ffffffffffffffffffffffffffffffffffffffff82169050919050565b5f6101a68261017d565b9050919050565b6101b68161019c565b81146101c0575f5ffd5b50565b5f815190506101d1816101ad565b92915050565b5f602082840312156101ec576101eb610179565b5b5f6101f9848285016101c3565b91505092915050565b61020b8161019c565b82525050565b5f6020820190506102245f830184610202565b92915050565b611db1806102375f395ff3fe608060405234801561000f575f5ffd5b50600436106100cd575f3560e01c8063730f919d1161008a578063ccdb52cf11610064578063ccdb52cf146101b1578063ddfaf5c5146101cf578063ea3b565f146101ed578063f2fde38b14610209576100cd565b8063730f919d146101595780638a19c8bc146101755780638da5cb5b14610193576100cd565b80630143381d146100d15780632add5071146100ef57806359bb18541461010b57806360f0f1cb146101275780636ecb53d014610145578063715018a61461014f575b5f5ffd5b6100d9610225565b6040516100e6919061120e565b60405180910390f35b610109600480360381019061010491906113a0565b610459565b005b610125600480360381019061012091906113fa565b610769565b005b61012f6108ae565b60405161013c9190611489565b60405180910390f35b61014d61093a565b005b610157610afc565b005b610173600480360381019061016e91906113fa565b610b0f565b005b61017d610da0565b60405161018a91906114c1565b60405180910390f35b61019b610da6565b6040516101a89190611519565b60405180910390f35b6101b9610dcd565b6040516101c691906114c1565b60405180910390f35b6101d7610dd2565b6040516101e491906115a5565b60405180910390f35b610207600480360381019061020291906113fa565b610de4565b005b610223600480360381019061021e91906115e8565b610f10565b005b60605f5f90505f5f90505b60065f60015481526020019081526020015f20805490508110156102a657600260065f60015481526020019081526020015f20828154811061027557610274611613565b5b905f5260205f20906003020160020154106102995781806102959061166d565b9250505b8080600101915050610230565b505f8167ffffffffffffffff8111156102c2576102c1611247565b5b6040519080825280602002602001820160405280156102f557816020015b60608152602001906001900390816102e05790505b5090505f5f90505f5f90505b60065f60015481526020019081526020015f208054905081101561044f57600260065f60015481526020019081526020015f20828154811061034657610345611613565b5b905f5260205f20906003020160020154106104425760065f60015481526020019081526020015f2081815481106103805761037f611613565b5b905f5260205f2090600302015f018054610399906116e1565b80601f01602080910402602001604051908101604052809291908181526020018280546103c5906116e1565b80156104105780601f106103e757610100808354040283529160200191610410565b820191905f5260205f20905b8154815290600101906020018083116103f357829003601f168201915b505050505083838151811061042857610427611613565b5b6020026020010181905250818061043e9061166d565b9250505b8080600101915050610301565b5081935050505090565b6002600381111561046d5761046c611532565b5b60025f9054906101000a900460ff16600381111561048e5761048d611532565b5b146104ce576040517f08c379a00000000000000000000000000000000000000000000000000000000081526004016104c59061175b565b60405180910390fd5b60055f60015481526020019081526020015f20826040516104ef91906117b3565b90815260200160405180910390205f3373ffffffffffffffffffffffffffffffffffffffff1673ffffffffffffffffffffffffffffffffffffffff1681526020019081526020015f205f9054906101000a900460ff1615610585576040517f08c379a000000000000000000000000000000000000000000000000000000000815260040161057c90611813565b60405180910390fd5b600160055f60015481526020019081526020015f20836040516105a891906117b3565b90815260200160405180910390205f3373ffffffffffffffffffffffffffffffffffffffff1673ffffffffffffffffffffffffffffffffffffffff1681526020019081526020015f205f6101000a81548160ff0219169083151502179055508015610712575f5f90505b60065f60015481526020019081526020015f2080549050811015610710578260405160200161064191906117b3565b6040516020818303038152906040528051906020012060065f60015481526020019081526020015f20828154811061067c5761067b611613565b5b905f5260205f2090600302015f0160405160200161069a91906118c3565b60405160208183030381529060405280519060200120036107035760065f60015481526020019081526020015f2081815481106106da576106d9611613565b5b905f5260205f2090600302016002015f8154809291906106f99061166d565b9190505550610710565b8080600101915050610612565b505b3373ffffffffffffffffffffffffffffffffffffffff166001547f7fb7266fac3d2c6ee8b8856baa45937ca9d2eed1ce2b0af726edc06ed545ac81848460405161075d9291906118e8565b60405180910390a35050565b610771610f94565b5f600381111561078457610783611532565b5b60025f9054906101000a900460ff1660038111156107a5576107a4611532565b5b146107e5576040517f08c379a00000000000000000000000000000000000000000000000000000000081526004016107dc90611960565b60405180910390fd5b60015f8154809291906107f79061166d565b9190505550806003908161080b9190611b0c565b50600160025f6101000a81548160ff0219169083600381111561083157610830611532565b5b02179055506001547fb8d69d47488ccd4393f1cd12604a72fe6f4f7c676bf0c91dd7c8a1bd15f7038e826040516108689190611489565b60405180910390a26001547f739595c1da440e41ee7f657d95d3051076a5c00d51ffac7af962864c8c49b6bb60016040516108a391906115a5565b60405180910390a250565b600380546108bb906116e1565b80601f01602080910402602001604051908101604052809291908181526020018280546108e7906116e1565b80156109325780601f1061090957610100808354040283529160200191610932565b820191905f5260205f20905b81548152906001019060200180831161091557829003601f168201915b505050505081565b610942610f94565b5f600381111561095557610954611532565b5b60025f9054906101000a900460ff16600381111561097657610975611532565b5b036109b6576040517f08c379a00000000000000000000000000000000000000000000000000000000081526004016109ad90611c25565b60405180910390fd5b600160038111156109ca576109c9611532565b5b60025f9054906101000a900460ff1660038111156109eb576109ea611532565b5b03610a59576002805f6101000a81548160ff02191690836003811115610a1457610a13611532565b5b02179055506001547f739595c1da440e41ee7f657d95d3051076a5c00d51ffac7af962864c8c49b6bb6002604051610a4c91906115a5565b60405180910390a2610afa565b60026003811115610a6d57610a6c611532565b5b60025f9054906101000a900460ff166003811115610a8e57610a8d611532565b5b03610af957600360025f6101000a81548160ff02191690836003811115610ab857610ab7611532565b5b02179055506001547f739595c1da440e41ee7f657d95d3051076a5c00d51ffac7af962864c8c49b6bb6003604051610af091906115a5565b60405180910390a25b5b565b610b04610f94565b610b0d5f61101b565b565b60016003811115610b2357610b22611532565b5b60025f9054906101000a900460ff166003811115610b4457610b43611532565b5b14610b84576040517f08c379a0000000000000000000000000000000000000000000000000000000008152600401610b7b90611c8d565b60405180910390fd5b5f60045f60015481526020019081526020015f205f3373ffffffffffffffffffffffffffffffffffffffff1673ffffffffffffffffffffffffffffffffffffffff1681526020019081526020015f208054610bde906116e1565b905014610c20576040517f08c379a0000000000000000000000000000000000000000000000000000000008152600401610c1790611cf5565b60405180910390fd5b8060045f60015481526020019081526020015f205f3373ffffffffffffffffffffffffffffffffffffffff1673ffffffffffffffffffffffffffffffffffffffff1681526020019081526020015f209081610c7b9190611b0c565b5060065f60015481526020019081526020015f2060405180606001604052808381526020013373ffffffffffffffffffffffffffffffffffffffff1681526020015f815250908060018154018082558091505060019003905f5260205f2090600302015f909190919091505f820151815f019081610cf99190611b0c565b506020820151816001015f6101000a81548173ffffffffffffffffffffffffffffffffffffffff021916908373ffffffffffffffffffffffffffffffffffffffff1602179055506040820151816002015550503373ffffffffffffffffffffffffffffffffffffffff166001547f9d222ed2b73a1858a94311576b5ad3188404d49a191f5f9313f93d5050e1224f83604051610d959190611489565b60405180910390a350565b60015481565b5f5f5f9054906101000a900473ffffffffffffffffffffffffffffffffffffffff16905090565b600281565b60025f9054906101000a900460ff1681565b610dec610f94565b600380811115610dff57610dfe611532565b5b60025f9054906101000a900460ff166003811115610e2057610e1f611532565b5b14610e60576040517f08c379a0000000000000000000000000000000000000000000000000000000008152600401610e5790611d5d565b60405180910390fd5b8060039081610e6f9190611b0c565b505f60025f6101000a81548160ff02191690836003811115610e9457610e93611532565b5b02179055506001547f282af0f2c7e7e5a4add52bc0817229859caa529235f5ee4028d3b67f658e6b7282604051610ecb9190611489565b60405180910390a26001547f739595c1da440e41ee7f657d95d3051076a5c00d51ffac7af962864c8c49b6bb5f604051610f0591906115a5565b60405180910390a250565b610f18610f94565b5f73ffffffffffffffffffffffffffffffffffffffff168173ffffffffffffffffffffffffffffffffffffffff1603610f88575f6040517f1e4fbdf7000000000000000000000000000000000000000000000000000000008152600401610f7f9190611519565b60405180910390fd5b610f918161101b565b50565b610f9c6110dc565b73ffffffffffffffffffffffffffffffffffffffff16610fba610da6565b73ffffffffffffffffffffffffffffffffffffffff161461101957610fdd6110dc565b6040517f118cdaa70000000000000000000000000000000000000000000000000000000081526004016110109190611519565b60405180910390fd5b565b5f5f5f9054906101000a900473ffffffffffffffffffffffffffffffffffffffff169050815f5f6101000a81548173ffffffffffffffffffffffffffffffffffffffff021916908373ffffffffffffffffffffffffffffffffffffffff1602179055508173ffffffffffffffffffffffffffffffffffffffff168173ffffffffffffffffffffffffffffffffffffffff167f8be0079c531659141344cd1fd0a4f28419497f9722a3daafe3b4186f6b6457e060405160405180910390a35050565b5f33905090565b5f81519050919050565b5f82825260208201905092915050565b5f819050602082019050919050565b5f81519050919050565b5f82825260208201905092915050565b8281835e5f83830152505050565b5f601f19601f8301169050919050565b5f61114e8261110c565b6111588185611116565b9350611168818560208601611126565b61117181611134565b840191505092915050565b5f6111878383611144565b905092915050565b5f602082019050919050565b5f6111a5826110e3565b6111af81856110ed565b9350836020820285016111c1856110fd565b805f5b858110156111fc57848403895281516111dd858261117c565b94506111e88361118f565b925060208a019950506001810190506111c4565b50829750879550505050505092915050565b5f6020820190508181035f830152611226818461119b565b905092915050565b5f604051905090565b5f5ffd5b5f5ffd5b5f5ffd5b5f5ffd5b7f4e487b71000000000000000000000000000000000000000000000000000000005f52604160045260245ffd5b61127d82611134565b810181811067ffffffffffffffff8211171561129c5761129b611247565b5b80604052505050565b5f6112ae61122e565b90506112ba8282611274565b919050565b5f67ffffffffffffffff8211156112d9576112d8611247565b5b6112e282611134565b9050602081019050919050565b828183375f83830152505050565b5f61130f61130a846112bf565b6112a5565b90508281526020810184848401111561132b5761132a611243565b5b6113368482856112ef565b509392505050565b5f82601f8301126113525761135161123f565b5b81356113628482602086016112fd565b91505092915050565b5f8115159050919050565b61137f8161136b565b8114611389575f5ffd5b50565b5f8135905061139a81611376565b92915050565b5f5f604083850312156113b6576113b5611237565b5b5f83013567ffffffffffffffff8111156113d3576113d261123b565b5b6113df8582860161133e565b92505060206113f08582860161138c565b9150509250929050565b5f6020828403121561140f5761140e611237565b5b5f82013567ffffffffffffffff81111561142c5761142b61123b565b5b6114388482850161133e565b91505092915050565b5f82825260208201905092915050565b5f61145b8261110c565b6114658185611441565b9350611475818560208601611126565b61147e81611134565b840191505092915050565b5f6020820190508181035f8301526114a18184611451565b905092915050565b5f819050919050565b6114bb816114a9565b82525050565b5f6020820190506114d45f8301846114b2565b92915050565b5f73ffffffffffffffffffffffffffffffffffffffff82169050919050565b5f611503826114da565b9050919050565b611513816114f9565b82525050565b5f60208201905061152c5f83018461150a565b92915050565b7f4e487b71000000000000000000000000000000000000000000000000000000005f52602160045260245ffd5b600481106115705761156f611532565b5b50565b5f8190506115808261155f565b919050565b5f61158f82611573565b9050919050565b61159f81611585565b82525050565b5f6020820190506115b85f830184611596565b92915050565b6115c7816114f9565b81146115d1575f5ffd5b50565b5f813590506115e2816115be565b92915050565b5f602082840312156115fd576115fc611237565b5b5f61160a848285016115d4565b91505092915050565b7f4e487b71000000000000000000000000000000000000000000000000000000005f52603260045260245ffd5b7f4e487b71000000000000000000000000000000000000000000000000000000005f52601160045260245ffd5b5f611677826114a9565b91507fffffffffffffffffffffffffffffffffffffffffffffffffffffffffffffffff82036116a9576116a8611640565b5b600182019050919050565b7f4e487b71000000000000000000000000000000000000000000000000000000005f52602260045260245ffd5b5f60028204905060018216806116f857607f821691505b60208210810361170b5761170a6116b4565b5b50919050565b7f4e6f7420696e2076616c69646174696f6e2070686173650000000000000000005f82015250565b5f611745601783611441565b915061175082611711565b602082019050919050565b5f6020820190508181035f83015261177281611739565b9050919050565b5f81905092915050565b5f61178d8261110c565b6117978185611779565b93506117a7818560208601611126565b80840191505092915050565b5f6117be8284611783565b915081905092915050565b7f416c726561647920766f746564206f6e2074686973206d6f64656c00000000005f82015250565b5f6117fd601b83611441565b9150611808826117c9565b602082019050919050565b5f6020820190508181035f83015261182a816117f1565b9050919050565b5f819050815f5260205f209050919050565b5f815461184f816116e1565b6118598186611779565b9450600182165f81146118735760018114611888576118ba565b60ff19831686528115158202860193506118ba565b61189185611831565b5f5b838110156118b257815481890152600182019150602081019050611893565b838801955050505b50505092915050565b5f6118ce8284611843565b915081905092915050565b6118e28161136b565b82525050565b5f6040820190508181035f8301526119008185611451565b905061190f60208301846118d9565b9392505050565b7f416e206578697374696e6720726f756e642069732061637469766500000000005f82015250565b5f61194a601b83611441565b915061195582611916565b602082019050919050565b5f6020820190508181035f8301526119778161193e565b9050919050565b5f6020601f8301049050919050565b5f82821b905092915050565b5f600883026119c87fffffffffffffffffffffffffffffffffffffffffffffffffffffffffffffffff8261198d565b6119d2868361198d565b95508019841693508086168417925050509392505050565b5f819050919050565b5f611a0d611a08611a03846114a9565b6119ea565b6114a9565b9050919050565b5f819050919050565b611a26836119f3565b611a3a611a3282611a14565b848454611999565b825550505050565b5f5f905090565b611a51611a42565b611a5c818484611a1d565b505050565b5b81811015611a7f57611a745f82611a49565b600181019050611a62565b5050565b601f821115611ac457611a9581611831565b611a9e8461197e565b81016020851015611aad578190505b611ac1611ab98561197e565b830182611a61565b50505b505050565b5f82821c905092915050565b5f611ae45f1984600802611ac9565b1980831691505092915050565b5f611afc8383611ad5565b9150826002028217905092915050565b611b158261110c565b67ffffffffffffffff811115611b2e57611b2d611247565b5b611b3882546116e1565b611b43828285611a83565b5f60209050601f831160018114611b74575f8415611b62578287015190505b611b6c8582611af1565b865550611bd3565b601f198416611b8286611831565b5f5b82811015611ba957848901518255600182019150602085019450602081019050611b84565b86831015611bc65784890151611bc2601f891682611ad5565b8355505b6001600288020188555050505b505050505050565b7f4e6f2061637469766520726f756e6400000000000000000000000000000000005f82015250565b5f611c0f600f83611441565b9150611c1a82611bdb565b602082019050919050565b5f6020820190508181035f830152611c3c81611c03565b9050919050565b7f4e6f7420696e207375626d697373696f6e2070686173650000000000000000005f82015250565b5f611c77601783611441565b9150611c8282611c43565b602082019050919050565b5f6020820190508181035f830152611ca481611c6b565b9050919050565b7f416c7265616479207375626d697474656420666f72207468697320726f756e645f82015250565b5f611cdf602083611441565b9150611cea82611cab565b602082019050919050565b5f6020820190508181035f830152611d0c81611cd3565b9050919050565b7f4e6f7420696e206167677265676174696f6e20706861736500000000000000005f82015250565b5f611d47601883611441565b9150611d5282611d13565b602082019050919050565b5f6020820190508181035f830152611d7481611d3b565b905091905056fea2646970667358221220674eb5fc22dfd782f42eb74ce85876afb69a0b62f9ebac93909af3505444255464736f6c634300081c0033",
  "linkReferences": {},
  "deployedLinkReferences": {},
  "immutableReferences": {},
  "inputSourceName": "project/contracts/FederatedLearning.sol",
  "buildInfoId": "solc-0_8_28-0b59f6a92940e597d5a6e88e09195afaaf3c214d"
}