{
  "_format": "hh3-artifact-1",
  "contractName": "FederatedLearning",
  "sourceName": "contracts/FederatedLearning.sol",
  "abi": [
    {
      "inputs": [
        {
          "internalType": "address",
          "name": "initialOwner",
          "type": "address"
        }
      ],
      "stateMutability": "nonpayable",
      "type": "constructor"
    },
    {
      "inputs": [
        {
          "internalType": "address",
          "name": "owner",
          "type": "address"
        }
      ],
      "name": "OwnableInvalidOwner",
      "type": "error"
    },
    {
      "inputs": [
        {
          "internalType": "address",
          "name": "account",
          "type": "address"
        }
      ],
      "name": "OwnableUnauthorizedAccount",
      "type": "error"
    },
    {
      "anonymous": false,
      "inputs": [
        {
          "indexed": false,
          "internalType": "string",
          "name": "newGlobalModelCID",
          "type": "string"
        }
      ],
      "name": "GlobalModelUpdated",
      "type": "event"
    },
    {
      "anonymous": false,
      "inputs": [
        {
          "indexed": true,
          "internalType": "uint256",
          "name": "roundId",
          "type": "uint256"
        },
        {
          "indexed": true,
          "internalType": "address",
          "name": "trainer",
          "type": "address"
        },
        {
          "indexed": false,
          "internalType": "string",
          "name": "modelCID",
          "type": "string"
        }
      ],
      "name": "ModelSubmitted",
      "type": "event"
    },
    {
      "anonymous": false,
      "inputs": [
        {
          "indexed": true,
          "internalType": "uint256",
          "name": "roundId",
          "type": "uint256"
        },
        {
          "indexed": true,
          "internalType": "address",
          "name": "validator",
          "type": "address"
        },
        {
          "indexed": false,
          "internalType": "string",
          "name": "modelCID",
          "type": "string"
        },
        {
          "indexed": false,
          "internalType": "bool",
          "name": "isValid",
          "type": "bool"
        }
      ],
      "name": "ModelValidated",
      "type": "event"
    },
    {
      "anonymous": false,
      "inputs": [
        {
          "indexed": true,
          "internalType": "uint256",
          "name": "roundId",
          "type": "uint256"
        },
        {
          "indexed": false,
          "internalType": "string",
          "name": "initialModelCID",
          "type": "string"
        }
      ],
      "name": "NewRoundStarted",
      "type": "event"
    },
    {
      "anonymous": false,
      "inputs": [
        {
          "indexed": true,
          "internalType": "address",
          "name": "previousOwner",
          "type": "address"
        },
        {
          "indexed": true,
          "internalType": "address",
          "name": "newOwner",
          "type": "address"
        }
      ],
      "name": "OwnershipTransferred",
      "type": "event"
    },
    {
      "anonymous": false,
      "inputs": [
        {
          "indexed": true,
          "internalType": "uint256",
          "name": "roundId",
          "type": "uint256"
        }
      ],
      "name": "RoundCancelled",
      "type": "event"
    },
    {
      "anonymous": false,
      "inputs": [
        {
          "indexed": true,
          "internalType": "uint256",
          "name": "roundId",
          "type": "uint256"
        },
        {
          "indexed": false,
          "internalType": "string",
          "name": "newGlobalModelCID",
          "type": "string"
        }
      ],
      "name": "RoundFinalized",
      "type": "event"
    },
    {
      "anonymous": false,
      "inputs": [
        {
          "indexed": true,
          "internalType": "uint256",
          "name": "roundId",
          "type": "uint256"
        },
        {
          "indexed": false,
          "internalType": "enum FederatedLearning.RoundState",
          "name": "newState",
          "type": "uint8"
        }
      ],
      "name": "RoundStateChanged",
      "type": "event"
    },
    {
      "inputs": [],
      "name": "REQUIRED_VALIDATIONS",
      "outputs": [
        {
          "internalType": "uint256",
          "name": "",
          "type": "uint256"
        }
      ],
      "stateMutability": "view",
      "type": "function"
    },
    {
      "inputs": [],
      "name": "advanceRoundState",
      "outputs": [],
      "stateMutability": "nonpayable",
      "type": "function"
    },
    {
      "inputs": [],
      "name": "cancelRound",
      "outputs": [],
      "stateMutability": "nonpayable",
      "type": "function"
    },
    {
      "inputs": [],
      "name": "currentRound",
      "outputs": [
        {
          "internalType": "uint256",
          "name": "",
          "type": "uint256"
        }
      ],
      "stateMutability": "view",
      "type": "function"
    },
    {
      "inputs": [],
      "name": "currentRoundState",
      "outputs": [
        {
          "internalType": "enum FederatedLearning.RoundState",
          "name": "",
          "type": "uint8"
        }
      ],
      "stateMutability": "view",
      "type": "function"
    },
    {
      "inputs": [
        {
          "internalType": "string",
          "name": "_newGlobalModelCID",
          "type": "string"
        }
      ],
      "name": "finalizeRound",
      "outputs": [],
      "stateMutability": "nonpayable",
      "type": "function"
    },
    {
      "inputs": [],
      "name": "getValidModelsForCurrentRound",
      "outputs": [
        {
          "internalType": "string[]",
          "name": "",
          "type": "string[]"
        }
      ],
      "stateMutability": "view",
      "type": "function"
    },
    {
      "inputs": [],
      "name": "globalModelCID",
      "outputs": [
        {
          "internalType": "string",
          "name": "",
          "type": "string"
        }
      ],
      "stateMutability": "view",
      "type": "function"
    },
    {
      "inputs": [],
      "name": "owner",
      "outputs": [
        {
          "internalType": "address",
          "name": "",
          "type": "address"
        }
      ],
      "stateMutability": "view",
      "type": "function"
    },
    {
      "inputs": [],
      "name": "renounceOwnership",
      "outputs": [],
      "stateMutability": "nonpayable",
      "type": "function"
    },
    {
      "inputs": [
        {
          "internalType": "string",
          "name": "_newGlobalModelCID",
          "type": "string"
        }
      ],
      "name": "setGlobalModelCID",
      "outputs": [],
      "stateMutability": "nonpayable",
      "type": "function"
    },
    {
      "inputs": [],
      "name": "startNewRound",
      "outputs": [],
      "stateMutability": "nonpayable",
      "type": "function"
    },
    {
      "inputs": [
        {
          "internalType": "string",
          "name": "_modelCID",
          "type": "string"
        }
      ],
      "name": "submitModel",
      "outputs": [],
      "stateMutability": "nonpayable",
      "type": "function"
    },
    {
      "inputs": [
        {
          "internalType": "address",
          "name": "newOwner",
          "type": "address"
        }
      ],
      "name": "transferOwnership",
      "outputs": [],
      "stateMutability": "nonpayable",
      "type": "function"
    },
    {
      "inputs": [
        {
          "internalType": "string",
          "name": "_modelCID",
          "type": "string"
        },
        {
          "internalType": "bool",
          "name": "_isValid",
          "type": "bool"
        }
      ],
      "name": "validateModel",
      "outputs": [],
      "stateMutability": "nonpayable",
      "type": "function"
    }
  ],
  "bytecode": "0x6080604052348015600e575f5ffd5b506040516115a53803806115a5833981016040819052602b9160b4565b806001600160a01b038116605857604051631e4fbdf760e01b81525f600482015260240160405180910390fd5b605f816065565b505060df565b5f80546001600160a01b038381166001600160a01b0319831681178455604051919092169283917f8be0079c531659141344cd1fd0a4f28419497f9722a3daafe3b4186f6b6457e09190a35050565b5f6020828403121560c3575f5ffd5b81516001600160a01b038116811460d8575f5ffd5b9392505050565b6114b9806100ec5f395ff3fe608060405234801561000f575f5ffd5b50600436106100f0575f3560e01c806386a594d011610093578063ccdb52cf11610063578063ccdb52cf146101b3578063ddfaf5c5146101bb578063ea3b565f146101d5578063f2fde38b146101e8575f5ffd5b806386a594d0146101725780638a19c8bc1461017a5780638da5cb5b14610191578063bd85948c146101ab575f5ffd5b806360f0f1cb116100ce57806360f0f1cb1461013a5780636ecb53d01461014f578063715018a614610157578063730f919d1461015f575f5ffd5b80630143381d146100f4578063073ac63d146101125780632add507114610127575b5f5ffd5b6100fc6101fb565b6040516101099190610f97565b60405180910390f35b610125610120366004611099565b6103fe565b005b6101256101353660046110d3565b61050d565b610142610786565b6040516101099190611126565b610125610812565b610125610916565b61012561016d366004611099565b610927565b610125610af2565b61018360015481565b604051908152602001610109565b5f546040516001600160a01b039091168152602001610109565b610125610be7565b610183600181565b6002546101c89060ff1681565b6040516101099190611153565b6101256101e3366004611099565b610d3a565b6101256101f6366004611179565b610e19565b60605f805b6001545f9081526006602052604090205481101561026657600180545f90815260066020526040902080548390811061023b5761023b61119f565b905f5260205f209060030201600201541061025e578161025a816111c7565b9250505b600101610200565b505f8167ffffffffffffffff81111561028157610281610ffa565b6040519080825280602002602001820160405280156102b457816020015b606081526020019060019003908161029f5790505b5090505f805b6001545f908152600660205260409020548110156103f557600180545f9081526006602052604090208054839081106102f5576102f561119f565b905f5260205f20906003020160020154106103ed576001545f90815260066020526040902080548290811061032c5761032c61119f565b905f5260205f2090600302015f018054610345906111df565b80601f0160208091040260200160405190810160405280929190818152602001828054610371906111df565b80156103bc5780601f10610393576101008083540402835291602001916103bc565b820191905f5260205f20905b81548152906001019060200180831161039f57829003601f168201915b50505050508383815181106103d3576103d361119f565b602002602001018190525081806103e9906111c7565b9250505b6001016102ba565b50909392505050565b610406610e56565b5f8151116104515760405162461bcd60e51b81526020600482015260136024820152724349442063616e6e6f7420626520656d70747960681b60448201526064015b60405180910390fd5b5f60025460ff1660038111156104695761046961113f565b146104c65760405162461bcd60e51b815260206004820152602760248201527f43616e6e6f7420736574206d6f64656c20647572696e6720616e20616374697660448201526619481c9bdd5b9960ca1b6064820152608401610448565b60036104d28282611263565b507f9a03b7f6231239b4134fc8c25943e7a82625cfdb32055e0d066560e29b2d8670816040516105029190611126565b60405180910390a150565b6002805460ff1660038111156105255761052561113f565b146105725760405162461bcd60e51b815260206004820152601760248201527f4e6f7420696e2076616c69646174696f6e2070686173650000000000000000006044820152606401610448565b6001545f9081526005602052604090819020905161059190849061131e565b9081526040805160209281900383019020335f908152925290205460ff16156105fc5760405162461bcd60e51b815260206004820152601b60248201527f416c726561647920766f746564206f6e2074686973206d6f64656c00000000006044820152606401610448565b600180545f9081526005602052604090819020905161061c90859061131e565b9081526040805160209281900383019020335f90815292529020805460ff1916911515919091179055801561073c575f5b6001545f9081526006602052604090205481101561073a5782604051602001610676919061131e565b6040516020818303038152906040528051906020012060065f60015481526020019081526020015f2082815481106106b0576106b061119f565b905f5260205f2090600302015f016040516020016106ce9190611334565b6040516020818303038152906040528051906020012003610732576001545f90815260066020526040902080548290811061070b5761070b61119f565b5f91825260208220600260039092020101805491610728836111c7565b919050555061073a565b60010161064d565b505b336001600160a01b03166001547f7fb7266fac3d2c6ee8b8856baa45937ca9d2eed1ce2b0af726edc06ed545ac81848460405161077a9291906113a5565b60405180910390a35050565b60038054610793906111df565b80601f01602080910402602001604051908101604052809291908181526020018280546107bf906111df565b801561080a5780601f106107e15761010080835404028352916020019161080a565b820191905f5260205f20905b8154815290600101906020018083116107ed57829003601f168201915b505050505081565b61081a610e56565b5f60025460ff1660038111156108325761083261113f565b036108715760405162461bcd60e51b815260206004820152600f60248201526e139bc81858dd1a5d99481c9bdd5b99608a1b6044820152606401610448565b600160025460ff16600381111561088a5761088a61113f565b036108c6576002805460ff19168117815560015460405190915f5160206114645f395f51905f52916108bc9190611153565b60405180910390a2565b6002805460ff1660038111156108de576108de61113f565b03610914576002805460ff1916600390811790915560015460405190915f5160206114645f395f51905f52916108bc9190611153565b565b61091e610e56565b6109145f610e82565b600160025460ff1660038111156109405761094061113f565b1461098d5760405162461bcd60e51b815260206004820152601760248201527f4e6f7420696e207375626d697373696f6e2070686173650000000000000000006044820152606401610448565b6001545f908152600460209081526040808320338452909152902080546109b3906111df565b159050610a025760405162461bcd60e51b815260206004820181905260248201527f416c7265616479207375626d697474656420666f72207468697320726f756e646044820152606401610448565b6001545f9081526004602090815260408083203384529091529020610a278282611263565b50600180545f9081526006602090815260408083208151606081018352868152338185015291820184905280549485018155835291208151919260030201908190610a729082611263565b506020820151816001015f6101000a8154816001600160a01b0302191690836001600160a01b03160217905550604082015181600201555050336001600160a01b03166001547f9d222ed2b73a1858a94311576b5ad3188404d49a191f5f9313f93d5050e1224f83604051610ae79190611126565b60405180910390a350565b610afa610e56565b5f60025460ff166003811115610b1257610b1261113f565b03610b5f5760405162461bcd60e51b815260206004820152601960248201527f4e6f2061637469766520726f756e6420746f2063616e63656c000000000000006044820152606401610448565b600180546002805460ff191690559081905f610b7a836113c8565b90915550505f818152600660205260408120610b9591610ed1565b60405181907fbf7aeff89cf7a4c3d0145879e39aa6a19e8e64ed585090ef86bf31f4d2ae57bf905f90a2805f5160206114645f395f51905f525f604051610bdc9190611153565b60405180910390a250565b610bef610e56565b5f60025460ff166003811115610c0757610c0761113f565b14610c545760405162461bcd60e51b815260206004820152601b60248201527f416e206578697374696e6720726f756e642069732061637469766500000000006044820152606401610448565b5f60038054610c62906111df565b905011610cbc5760405162461bcd60e51b815260206004820152602260248201527f476c6f62616c206d6f64656c20434944206d75737420626520736574206669726044820152611cdd60f21b6064820152608401610448565b60018054905f610ccb836111c7565b90915550506002805460ff19166001908117909155546040517fb8d69d47488ccd4393f1cd12604a72fe6f4f7c676bf0c91dd7c8a1bd15f7038e90610d12906003906113dd565b60405180910390a26001545f5160206114645f395f51905f5260016040516108bc9190611153565b610d42610e56565b600360025460ff166003811115610d5b57610d5b61113f565b14610da85760405162461bcd60e51b815260206004820152601860248201527f4e6f7420696e206167677265676174696f6e20706861736500000000000000006044820152606401610448565b6003610db48282611263565b506002805460ff191690556001546040517f282af0f2c7e7e5a4add52bc0817229859caa529235f5ee4028d3b67f658e6b7290610df2908490611126565b60405180910390a26001545f5160206114645f395f51905f525f604051610bdc9190611153565b610e21610e56565b6001600160a01b038116610e4a57604051631e4fbdf760e01b81525f6004820152602401610448565b610e5381610e82565b50565b5f546001600160a01b031633146109145760405163118cdaa760e01b8152336004820152602401610448565b5f80546001600160a01b038381166001600160a01b0319831681178455604051919092169283917f8be0079c531659141344cd1fd0a4f28419497f9722a3daafe3b4186f6b6457e09190a35050565b5080545f8255600302905f5260205f2090810190610e5391905b80821115610f1f575f610efe8282610f23565b506001810180546001600160a01b03191690555f6002820155600301610eeb565b5090565b508054610f2f906111df565b5f825580601f10610f3e575050565b601f0160209004905f5260205f2090810190610e5391905b80821115610f1f575f8155600101610f56565b5f81518084528060208401602086015e5f602082860101526020601f19601f83011685010191505092915050565b5f602082016020835280845180835260408501915060408160051b8601019250602086015f5b82811015610fee57603f19878603018452610fd9858351610f69565b94506020938401939190910190600101610fbd565b50929695505050505050565b634e487b7160e01b5f52604160045260245ffd5b5f82601f83011261101d575f5ffd5b813567ffffffffffffffff81111561103757611037610ffa565b604051601f8201601f19908116603f0116810167ffffffffffffffff8111828210171561106657611066610ffa565b60405281815283820160200185101561107d575f5ffd5b816020850160208301375f918101602001919091529392505050565b5f602082840312156110a9575f5ffd5b813567ffffffffffffffff8111156110bf575f5ffd5b6110cb8482850161100e565b949350505050565b5f5f604083850312156110e4575f5ffd5b823567ffffffffffffffff8111156110fa575f5ffd5b6111068582860161100e565b9250506020830135801515811461111b575f5ffd5b809150509250929050565b602081525f6111386020830184610f69565b9392505050565b634e487b7160e01b5f52602160045260245ffd5b602081016004831061117357634e487b7160e01b5f52602160045260245ffd5b91905290565b5f60208284031215611189575f5ffd5b81356001600160a01b0381168114611138575f5ffd5b634e487b7160e01b5f52603260045260245ffd5b634e487b7160e01b5f52601160045260245ffd5b5f600182016111d8576111d86111b3565b5060010190565b600181811c908216806111f357607f821691505b60208210810361121157634e487b7160e01b5f52602260045260245ffd5b50919050565b601f82111561125e57805f5260205f20601f840160051c8101602085101561123c5750805b601f840160051c820191505b8181101561125b575f8155600101611248565b50505b505050565b815167ffffffffffffffff81111561127d5761127d610ffa565b6112918161128b84546111df565b84611217565b6020601f8211600181146112c3575f83156112ac5750848201515b5f19600385901b1c1916600184901b17845561125b565b5f84815260208120601f198516915b828110156112f257878501518255602094850194600190920191016112d2565b508482101561130f57868401515f19600387901b60f8161c191681555b50505050600190811b01905550565b5f82518060208501845e5f920191825250919050565b5f5f8354611341816111df565b600182168015611358576001811461136d5761139a565b60ff198316865281151582028601935061139a565b865f5260205f205f5b8381101561139257815488820152600190910190602001611376565b505081860193505b509195945050505050565b604081525f6113b76040830185610f69565b905082151560208301529392505050565b5f816113d6576113d66111b3565b505f190190565b602081525f5f83546113ee816111df565b806020860152600182165f811461140c57600181146114285761139a565b60ff1983166040870152604082151560051b870101935061139a565b865f5260205f205f5b8381101561145057815488820160400152600190910190602001611431565b870160400194505050919594505050505056fe739595c1da440e41ee7f657d95d3051076a5c00d51ffac7af962864c8c49b6bba2646970667358221220c484abea529a149ec3077bdff1c4da4b1361356fca2b0014f6f8e485ec1512d564736f6c634300081c0033",
  "linkReferences": {},
  "deployedLinkReferences": {},
  "immutableReferences": {},
  "inputSourceName": "project/contracts/FederatedLearning.sol",
  "buildInfoId": "solc-0_8_28-7f3a89ffdde52cac79942931ee286ebeda31fa74"
}