{
  "_format": "hh3-artifact-1",
  "contractName": "SimpleStorage",
  "sourceName": "contracts/Simple.sol",
  "abi": [
    {
      "inputs": [
        {
          "internalType": "uint256",
          "name": "_initialNumber",
          "type": "uint256"
        }
      ],
      "stateMutability": "nonpayable",
      "type": "constructor"
    },
    {
      "inputs": [],
      "name": "number",
      "outputs": [
        {
          "internalType": "uint256",
          "name": "",
          "type": "uint256"
        }
      ],
      "stateMutability": "view",
      "type": "function"
    },
    {
      "inputs": [
        {
          "internalType": "uint256",
          "name": "_newNumber",
          "type": "uint256"
        }
      ],
      "name": "setNumber",
      "outputs": [],
      "stateMutability": "nonpayable",
      "type": "function"
    }
  ],
  "bytecode": "0x6080604052348015600e575f5ffd5b506040516100fd3803806100fd833981016040819052602b916031565b5f556047565b5f602082840312156040575f5ffd5b5051919050565b60aa806100535f395ff3fe6080604052348015600e575f5ffd5b50600436106030575f3560e01c80633fb5c1cb1460345780638381f58a146045575b5f5ffd5b6043603f366004605e565b5f55565b005b604c5f5481565b60405190815260200160405180910390f35b5f60208284031215606d575f5ffd5b503591905056fea2646970667358221220e50af7caf530322d1c5383d2cfcbb557ec218b35562ce5b940a679af26b9e23064736f6c634300081c0033",
  "linkReferences": {},
  "deployedLinkReferences": {},
  "immutableReferences": {},
  "inputSourceName": "project/contracts/Simple.sol",
  "buildInfoId": "solc-0_8_28-b8d9a0a529ea3241e9670067c84fcdf197d3d330"
}