{
  "_format": "hh3-artifact-1",
  "contractName": "FederatedLearning",
  "sourceName": "contracts/FederatedLearning.sol",
  "abi": [
    {
      "inputs": [
        {
          "internalType": "address",
          "name": "initialOwner",
          "type": "address"
        }
      ],
      "stateMutability": "nonpayable",
      "type": "constructor"
    },
    {
      "inputs": [
        {
          "internalType": "address",
          "name": "owner",
          "type": "address"
        }
      ],
      "name": "OwnableInvalidOwner",
      "type": "error"
    },
    {
      "inputs": [
        {
          "internalType": "address",
          "name": "account",
          "type": "address"
        }
      ],
      "name": "OwnableUnauthorizedAccount",
      "type": "error"
    },
    {
      "anonymous": false,
      "inputs": [
        {
          "indexed": true,
          "internalType": "uint256",
          "name": "campaignId",
          "type": "uint256"
        }
      ],
      "name": "CampaignCancelled",
      "type": "event"
    },
    {
      "anonymous": false,
      "inputs": [
        {
          "indexed": true,
          "internalType": "uint256",
          "name": "campaignId",
          "type": "uint256"
        },
        {
          "indexed": true,
          "internalType": "uint8",
          "name": "round",
          "type": "uint8"
        },
        {
          "indexed": false,
          "internalType": "string",
          "name": "finalGlobalModelCID",
          "type": "string"
        }
      ],
      "name": "CampaignCompleted",
      "type": "event"
    },
    {
      "anonymous": false,
      "inputs": [
        {
          "indexed": true,
          "internalType": "uint256",
          "name": "campaignId",
          "type": "uint256"
        },
        {
          "indexed": false,
          "internalType": "uint8",
          "name": "totalRounds",
          "type": "uint8"
        },
        {
          "indexed": false,
          "internalType": "string",
          "name": "initialModelCID",
          "type": "string"
        }
      ],
      "name": "CampaignCreated",
      "type": "event"
    },
    {
      "anonymous": false,
      "inputs": [
        {
          "indexed": true,
          "internalType": "uint256",
          "name": "campaignId",
          "type": "uint256"
        },
        {
          "indexed": false,
          "internalType": "enum FederatedLearning.CampaignState",
          "name": "newState",
          "type": "uint8"
        }
      ],
      "name": "CampaignStateChanged",
      "type": "event"
    },
    {
      "anonymous": false,
      "inputs": [
        {
          "indexed": true,
          "internalType": "uint256",
          "name": "campaignId",
          "type": "uint256"
        },
        {
          "indexed": true,
          "internalType": "uint8",
          "name": "round",
          "type": "uint8"
        },
        {
          "indexed": false,
          "internalType": "enum FederatedLearning.CampaignState",
          "name": "state",
          "type": "uint8"
        },
        {
          "indexed": false,
          "internalType": "string",
          "name": "finalGlobalModelCID",
          "type": "string"
        }
      ],
      "name": "GlobalModelChanged",
      "type": "event"
    },
    {
      "anonymous": false,
      "inputs": [
        {
          "indexed": true,
          "internalType": "uint256",
          "name": "campaignId",
          "type": "uint256"
        },
        {
          "indexed": true,
          "internalType": "uint8",
          "name": "round",
          "type": "uint8"
        },
        {
          "indexed": true,
          "internalType": "address",
          "name": "trainer",
          "type": "address"
        },
        {
          "indexed": false,
          "internalType": "string",
          "name": "modelCID",
          "type": "string"
        }
      ],
      "name": "ModelSubmitted",
      "type": "event"
    },
    {
      "anonymous": false,
      "inputs": [
        {
          "indexed": true,
          "internalType": "uint256",
          "name": "campaignId",
          "type": "uint256"
        },
        {
          "indexed": true,
          "internalType": "uint8",
          "name": "round",
          "type": "uint8"
        },
        {
          "indexed": true,
          "internalType": "address",
          "name": "validator",
          "type": "address"
        },
        {
          "indexed": false,
          "internalType": "string",
          "name": "modelCID",
          "type": "string"
        },
        {
          "indexed": false,
          "internalType": "bool",
          "name": "isValid",
          "type": "bool"
        }
      ],
      "name": "ModelValidated",
      "type": "event"
    },
    {
      "anonymous": false,
      "inputs": [
        {
          "indexed": true,
          "internalType": "uint256",
          "name": "campaignId",
          "type": "uint256"
        },
        {
          "indexed": true,
          "internalType": "uint8",
          "name": "round",
          "type": "uint8"
        },
        {
          "indexed": false,
          "internalType": "string",
          "name": "initialModelCID",
          "type": "string"
        }
      ],
      "name": "NewRoundStarted",
      "type": "event"
    },
    {
      "anonymous": false,
      "inputs": [
        {
          "indexed": true,
          "internalType": "address",
          "name": "previousOwner",
          "type": "address"
        },
        {
          "indexed": true,
          "internalType": "address",
          "name": "newOwner",
          "type": "address"
        }
      ],
      "name": "OwnershipTransferred",
      "type": "event"
    },
    {
      "anonymous": false,
      "inputs": [
        {
          "indexed": true,
          "internalType": "uint256",
          "name": "campaignId",
          "type": "uint256"
        },
        {
          "indexed": true,
          "internalType": "uint8",
          "name": "round",
          "type": "uint8"
        },
        {
          "indexed": false,
          "internalType": "string",
          "name": "newGlobalModelCID",
          "type": "string"
        }
      ],
      "name": "RoundFinalized",
      "type": "event"
    },
    {
      "inputs": [],
      "name": "REQUIRED_VALIDATIONS",
      "outputs": [
        {
          "internalType": "uint256",
          "name": "",
          "type": "uint256"
        }
      ],
      "stateMutability": "view",
      "type": "function"
    },
    {
      "inputs": [],
      "name": "activeCampaignId",
      "outputs": [
        {
          "internalType": "uint256",
          "name": "",
          "type": "uint256"
        }
      ],
      "stateMutability": "view",
      "type": "function"
    },
    {
      "inputs": [],
      "name": "attemptAggregation",
      "outputs": [],
      "stateMutability": "nonpayable",
      "type": "function"
    },
    {
      "inputs": [],
      "name": "campaignCounter",
      "outputs": [
        {
          "internalType": "uint256",
          "name": "",
          "type": "uint256"
        }
      ],
      "stateMutability": "view",
      "type": "function"
    },
    {
      "inputs": [
        {
          "internalType": "uint256",
          "name": "",
          "type": "uint256"
        }
      ],
      "name": "campaigns",
      "outputs": [
        {
          "internalType": "uint256",
          "name": "id",
          "type": "uint256"
        },
        {
          "internalType": "enum FederatedLearning.CampaignState",
          "name": "state",
          "type": "uint8"
        },
        {
          "internalType": "string",
          "name": "globalModelCID",
          "type": "string"
        },
        {
          "internalType": "uint8",
          "name": "currentRound",
          "type": "uint8"
        },
        {
          "internalType": "uint8",
          "name": "totalRounds",
          "type": "uint8"
        },
        {
          "internalType": "uint256",
          "name": "submissionDeadline",
          "type": "uint256"
        },
        {
          "internalType": "uint8",
          "name": "minSubmissions",
          "type": "uint8"
        },
        {
          "internalType": "uint8",
          "name": "submissionCounter",
          "type": "uint8"
        }
      ],
      "stateMutability": "view",
      "type": "function"
    },
    {
      "inputs": [],
      "name": "cancelCampaign",
      "outputs": [],
      "stateMutability": "nonpayable",
      "type": "function"
    },
    {
      "inputs": [
        {
          "internalType": "address[]",
          "name": "_participants",
          "type": "address[]"
        },
        {
          "internalType": "uint8",
          "name": "_totalRounds",
          "type": "uint8"
        },
        {
          "internalType": "string",
          "name": "_initialModelCID",
          "type": "string"
        },
        {
          "internalType": "uint256",
          "name": "_submissionPeriod",
          "type": "uint256"
        },
        {
          "internalType": "uint8",
          "name": "_minSubmissions",
          "type": "uint8"
        }
      ],
      "name": "createTrainingCampaign",
      "outputs": [],
      "stateMutability": "nonpayable",
      "type": "function"
    },
    {
      "inputs": [
        {
          "internalType": "string",
          "name": "_newGlobalModelCID",
          "type": "string"
        }
      ],
      "name": "finalizeRound",
      "outputs": [],
      "stateMutability": "nonpayable",
      "type": "function"
    },
    {
      "inputs": [],
      "name": "getValidModelsForCurrentRound",
      "outputs": [
        {
          "internalType": "string[]",
          "name": "",
          "type": "string[]"
        }
      ],
      "stateMutability": "view",
      "type": "function"
    },
    {
      "inputs": [],
      "name": "owner",
      "outputs": [
        {
          "internalType": "address",
          "name": "",
          "type": "address"
        }
      ],
      "stateMutability": "view",
      "type": "function"
    },
    {
      "inputs": [],
      "name": "renounceOwnership",
      "outputs": [],
      "stateMutability": "nonpayable",
      "type": "function"
    },
    {
      "inputs": [
        {
          "internalType": "string",
          "name": "_modelCID",
          "type": "string"
        }
      ],
      "name": "submitModel",
      "outputs": [],
      "stateMutability": "nonpayable",
      "type": "function"
    },
    {
      "inputs": [
        {
          "internalType": "address",
          "name": "newOwner",
          "type": "address"
        }
      ],
      "name": "transferOwnership",
      "outputs": [],
      "stateMutability": "nonpayable",
      "type": "function"
    }
  ],
  "bytecode": "0x6080604052348015600e575f5ffd5b506040516117df3803806117df833981016040819052602b9160b4565b806001600160a01b038116605857604051631e4fbdf760e01b81525f600482015260240160405180910390fd5b605f816065565b505060df565b5f80546001600160a01b038381166001600160a01b0319831681178455604051919092169283917f8be0079c531659141344cd1fd0a4f28419497f9722a3daafe3b4186f6b6457e09190a35050565b5f6020828403121560c3575f5ffd5b81516001600160a01b038116811460d8575f5ffd5b9392505050565b6116f3806100ec5f395ff3fe608060405234801561000f575f5ffd5b50600436106100cb575f3560e01c80638da5cb5b11610088578063ccdb52cf11610063578063ccdb52cf14610185578063ea3b565f1461018c578063f2fde38b1461019f578063fca604d7146101b2575f5ffd5b80638da5cb5b1461015057806397b7c7161461016a578063980e78441461017d575f5ffd5b80630143381d146100cf578063141961bc146100ed5780634b4eee5a146101145780636ee235641461012b578063715018a614610135578063730f919d1461013d575b5f5ffd5b6100d76101bb565b6040516100e49190611145565b60405180910390f35b6101006100fb3660046111a8565b61046f565b6040516100e49897969594939291906111f3565b61011d60025481565b6040519081526020016100e4565b610133610543565b005b610133610667565b61013361014b366004611304565b61067a565b5f546040516001600160a01b0390911681526020016100e4565b610133610178366004611369565b610979565b610133610cc1565b61011d5f81565b61013361019a366004611304565b610da1565b6101336101ad36600461146e565b61105f565b61011d60015481565b60605f6002541161020b5760405162461bcd60e51b81526020600482015260156024820152744e6f2063616d706169676e2069732061637469766560581b60448201526064015b60405180910390fd5b6002545f908152600360208190526040822090810154909160ff90911690805b6002545f90815260056020908152604080832060ff871684529091529020548110156102ac576002545f90815260056020908152604080832060ff8716845290915281208054839081106102815761028161148e565b905f5260205f20906003020160020154106102a457816102a0816114b6565b9250505b60010161022b565b505f8167ffffffffffffffff8111156102c7576102c7611253565b6040519080825280602002602001820160405280156102fa57816020015b60608152602001906001900390816102e55790505b5090505f805b6002545f90815260056020908152604080832060ff89168452909152902054811015610464576002545f90815260056020908152604080832060ff8916845290915281208054839081106103565761035661148e565b905f5260205f209060030201600201541061045c576002545f90815260056020908152604080832060ff89168452909152902080548290811061039b5761039b61148e565b905f5260205f2090600302015f0180546103b4906114ce565b80601f01602080910402602001604051908101604052809291908181526020018280546103e0906114ce565b801561042b5780601f106104025761010080835404028352916020019161042b565b820191905f5260205f20905b81548152906001019060200180831161040e57829003601f168201915b50505050508383815181106104425761044261148e565b60200260200101819052508180610458906114b6565b9250505b600101610300565b509095945050505050565b60036020525f9081526040902080546001820154600283018054929360ff9092169261049a906114ce565b80601f01602080910402602001604051908101604052809291908181526020018280546104c6906114ce565b80156105115780601f106104e857610100808354040283529160200191610511565b820191905f5260205f20905b8154815290600101906020018083116104f457829003601f168201915b5050505060038301546005840154600690940154929360ff808316946101009384900482169450919281831692041688565b6002545f90815260036020526040902060018082015460ff16600381111561056d5761056d6111bf565b146105b45760405162461bcd60e51b81526020600482015260176024820152764e6f7420696e207375626d697373696f6e20706861736560481b6044820152606401610202565b6005810154600682015442919091119060ff80821661010090920416101581806105db5750805b6106275760405162461bcd60e51b815260206004820152601e60248201527f4167677265676174696f6e20636f6e646974696f6e73206e6f74206d657400006044820152606401610202565b60018301805460ff1916600390811790915560025460405190915f51602061169e5f395f51905f529161065a9190611506565b60405180910390a2505050565b61066f61109c565b6106785f6110c8565b565b6002545f9081526003602081905260409091209081015460ff1660018083015460ff1660038111156106ae576106ae6111bf565b146106f55760405162461bcd60e51b81526020600482015260176024820152764e6f7420696e207375626d697373696f6e20706861736560481b6044820152606401610202565b81600501544211156107495760405162461bcd60e51b815260206004820152601b60248201527f5375626d697373696f6e20706572696f642068617320656e64656400000000006044820152606401610202565b335f90815260048301602052604090205460ff166107bd5760405162461bcd60e51b815260206004820152602b60248201527f4e6f7420616e20617574686f72697a656420747261696e657220666f7220746860448201526a34b99031b0b6b830b4b3b760a91b6064820152608401610202565b6002545f90815260046020908152604080832060ff851684528252808320338452909152902080546107ee906114ce565b15905061083d5760405162461bcd60e51b815260206004820181905260248201527f416c7265616479207375626d697474656420666f72207468697320726f756e646044820152606401610202565b6002545f90815260046020908152604080832060ff851684528252808320338452909152902061086d8482611565565b506002545f90815260056020908152604080832060ff8516845282528083208151606081018352878152338185015291820184905280546001810182559084529190922082516003909202019081906108c69082611565565b506020820151600182810180546001600160a01b0319166001600160a01b0390931692909217909155604090920151600290910155600683018054610100900460ff169161091383611620565b91906101000a81548160ff021916908360ff16021790555050336001600160a01b03168160ff166002547f08b17927e8ee4e2f6476e64f65d644fa5cdbced6e4d5c993171f6ce8ae6317cb8660405161096c919061163e565b60405180910390a4505050565b61098161109c565b6002545f90815260036020819052604082206001015460ff16908111156109aa576109aa6111bf565b146109f75760405162461bcd60e51b815260206004820152601e60248201527f416e206578697374696e672063616d706169676e2069732061637469766500006044820152606401610202565b5f855111610a555760405162461bcd60e51b815260206004820152602560248201527f4d7573742070726f76696465206174206c65617374206f6e65207061727469636044820152641a5c185b9d60da1b6064820152608401610202565b5f8160ff16118015610a6b575084518160ff1611155b610ab75760405162461bcd60e51b815260206004820152601760248201527f496e76616c6964206d696e207375626d697373696f6e730000000000000000006044820152606401610202565b5f8211610b115760405162461bcd60e51b815260206004820152602260248201527f5375626d697373696f6e20706572696f64206d75737420626520706f73697469604482015261766560f01b6064820152608401610202565b60018054905f610b20836114b6565b90915550506001805460028181555f8281526003602081905260409091209283558201805461ffff191661010060ff8a160260ff199081169190911785179091558284018054909116909317909255908101610b7c8582611565565b5060068101805460ff191660ff8416179055610b988342611650565b600582015560068101805461ff00191690555f5b8651811015610c07576001826004015f898481518110610bce57610bce61148e565b6020908102919091018101516001600160a01b031682528101919091526040015f20805460ff1916911515919091179055600101610bac565b506002547fa31a56872f821ec03b1752efec5eb70ea7b75d1ee210c6fc4ace5e0232c4df738686604051610c3c929190611663565b60405180910390a26002545f51602061169e5f395f51905f526001604051610c649190611506565b60405180910390a260038101548154600183015460405160ff938416937f38ecf5f0f3332b767a865e7b4ea255c4cfd43ea24621111d47f9392862fec3f492610cb192911690899061167e565b60405180910390a3505050505050565b610cc961109c565b6002545f90815260036020526040812090600182015460ff166003811115610cf357610cf36111bf565b03610d405760405162461bcd60e51b815260206004820152601c60248201527f4e6f206163746976652063616d706169676e20746f2063616e63656c000000006044820152606401610202565b60018101805460ff191690556002546040517f403b6718db13878ac16c27decb08f09d3a10f116c7c25af575ff5bfbc11ae9e6905f90a26002545f51602061169e5f395f51905f525f604051610d969190611506565b60405180910390a250565b610da961109c565b6002545f90815260036020819052604090912080820154909160ff90911690600183015460ff166003811115610de157610de16111bf565b14610e2e5760405162461bcd60e51b815260206004820152601860248201527f4e6f7420696e206167677265676174696f6e20706861736500000000000000006044820152606401610202565b5f835111610e8a5760405162461bcd60e51b8152602060048201526024808201527f4e657720676c6f62616c206d6f64656c204349442063616e6e6f7420626520656044820152636d70747960e01b6064820152608401610202565b60028201610e988482611565565b5060068201805461ff00191690558154600183015460405160ff84811693927f38ecf5f0f3332b767a865e7b4ea255c4cfd43ea24621111d47f9392862fec3f492610ee89290911690889061167e565b60405180910390a38060ff166002547f97dbd91ec602ee1ff501bec1c3dd5c29c19ed4602577d56a11fd9fe43300475585604051610f26919061163e565b60405180910390a3600382015460ff610100909104811690821603610fb65760018201805460ff19169055600382015460025460405160ff909216917f78ba588b7b3158d5b56a5bbd92ccc4567564978a2070598330c4b160a79e1ef990610f8f90879061163e565b60405180910390a36002545f51602061169e5f395f51905f525f60405161065a9190611506565b60038201805460ff16905f610fca83611620565b82546101009290920a60ff8181021990931691831602179091556001848101805460ff1916909117905560038401546002546040519190921692507f4119e2d239fd538e20edd294dea9455fc348a97bdc7fa5963de120e144543d919061103290879061163e565b60405180910390a36002545f51602061169e5f395f51905f52600160405161065a9190611506565b505050565b61106761109c565b6001600160a01b03811661109057604051631e4fbdf760e01b81525f6004820152602401610202565b611099816110c8565b50565b5f546001600160a01b031633146106785760405163118cdaa760e01b8152336004820152602401610202565b5f80546001600160a01b038381166001600160a01b0319831681178455604051919092169283917f8be0079c531659141344cd1fd0a4f28419497f9722a3daafe3b4186f6b6457e09190a35050565b5f81518084528060208401602086015e5f602082860101526020601f19601f83011685010191505092915050565b5f602082016020835280845180835260408501915060408160051b8601019250602086015f5b8281101561119c57603f19878603018452611187858351611117565b9450602093840193919091019060010161116b565b50929695505050505050565b5f602082840312156111b8575f5ffd5b5035919050565b634e487b7160e01b5f52602160045260245ffd5b600481106111ef57634e487b7160e01b5f52602160045260245ffd5b9052565b88815261120360208201896111d3565b61010060408201525f61121a610100830189611117565b905060ff8716606083015260ff861660808301528460a083015260ff841660c083015260ff831660e08301529998505050505050505050565b634e487b7160e01b5f52604160045260245ffd5b604051601f8201601f1916810167ffffffffffffffff8111828210171561129057611290611253565b604052919050565b5f82601f8301126112a7575f5ffd5b813567ffffffffffffffff8111156112c1576112c1611253565b6112d4601f8201601f1916602001611267565b8181528460208386010111156112e8575f5ffd5b816020850160208301375f918101602001919091529392505050565b5f60208284031215611314575f5ffd5b813567ffffffffffffffff81111561132a575f5ffd5b61133684828501611298565b949350505050565b80356001600160a01b0381168114611354575f5ffd5b919050565b803560ff81168114611354575f5ffd5b5f5f5f5f5f60a0868803121561137d575f5ffd5b853567ffffffffffffffff811115611393575f5ffd5b8601601f810188136113a3575f5ffd5b803567ffffffffffffffff8111156113bd576113bd611253565b8060051b6113cd60208201611267565b9182526020818401810192908101908b8411156113e8575f5ffd5b6020850194505b83851015611411576114008561133e565b8252602094850194909101906113ef565b809950505050505061142560208701611359565b9350604086013567ffffffffffffffff811115611440575f5ffd5b61144c88828901611298565b9350506060860135915061146260808701611359565b90509295509295909350565b5f6020828403121561147e575f5ffd5b6114878261133e565b9392505050565b634e487b7160e01b5f52603260045260245ffd5b634e487b7160e01b5f52601160045260245ffd5b5f600182016114c7576114c76114a2565b5060010190565b600181811c908216806114e257607f821691505b60208210810361150057634e487b7160e01b5f52602260045260245ffd5b50919050565b6020810161151482846111d3565b92915050565b601f82111561105a57805f5260205f20601f840160051c8101602085101561153f5750805b601f840160051c820191505b8181101561155e575f815560010161154b565b5050505050565b815167ffffffffffffffff81111561157f5761157f611253565b6115938161158d84546114ce565b8461151a565b6020601f8211600181146115c5575f83156115ae5750848201515b5f19600385901b1c1916600184901b17845561155e565b5f84815260208120601f198516915b828110156115f457878501518255602094850194600190920191016115d4565b508482101561161157868401515f19600387901b60f8161c191681555b50505050600190811b01905550565b5f60ff821660ff8103611635576116356114a2565b60010192915050565b602081525f6114876020830184611117565b80820180821115611514576115146114a2565b60ff83168152604060208201525f6113366040830184611117565b61168881846111d3565b604060208201525f611336604083018461111756fe7c387a42b7678e1b26d65927d4a0176444d9c6509a72583dee248753b768db41a26469706673582212209837ba9d2d64a83f93f522782b0a5aa03cd235efa98e28da74db678098774f0a64736f6c634300081c0033",
  "linkReferences": {},
  "deployedLinkReferences": {},
  "immutableReferences": {},
  "inputSourceName": "project/contracts/FederatedLearning.sol",
  "buildInfoId": "solc-0_8_28-7b75927881c14e5d41909d83f75dacb49ef1c640"
}